{
  "contractName": "Token",
  "abi": [
    {
      "inputs": [
        {
          "internalType": "string",
          "name": "name",
          "type": "string"
        },
        {
          "internalType": "string",
          "name": "symbol",
          "type": "string"
        }
      ],
      "stateMutability": "nonpayable",
      "type": "constructor"
    },
    {
      "anonymous": false,
      "inputs": [
        {
          "indexed": true,
          "internalType": "address",
          "name": "owner",
          "type": "address"
        },
        {
          "indexed": true,
          "internalType": "address",
          "name": "approved",
          "type": "address"
        },
        {
          "indexed": true,
          "internalType": "uint256",
          "name": "tokenId",
          "type": "uint256"
        }
      ],
      "name": "Approval",
      "type": "event"
    },
    {
      "anonymous": false,
      "inputs": [
        {
          "indexed": true,
          "internalType": "address",
          "name": "owner",
          "type": "address"
        },
        {
          "indexed": true,
          "internalType": "address",
          "name": "operator",
          "type": "address"
        },
        {
          "indexed": false,
          "internalType": "bool",
          "name": "approved",
          "type": "bool"
        }
      ],
      "name": "ApprovalForAll",
      "type": "event"
    },
    {
      "anonymous": false,
      "inputs": [
        {
          "indexed": true,
          "internalType": "address",
          "name": "previousOwner",
          "type": "address"
        },
        {
          "indexed": true,
          "internalType": "address",
          "name": "newOwner",
          "type": "address"
        }
      ],
      "name": "OwnershipTransferred",
      "type": "event"
    },
    {
      "anonymous": false,
      "inputs": [
        {
          "indexed": true,
          "internalType": "address",
          "name": "from",
          "type": "address"
        },
        {
          "indexed": true,
          "internalType": "address",
          "name": "to",
          "type": "address"
        },
        {
          "indexed": true,
          "internalType": "uint256",
          "name": "tokenId",
          "type": "uint256"
        }
      ],
      "name": "Transfer",
      "type": "event"
    },
    {
      "inputs": [
        {
          "internalType": "address",
          "name": "to",
          "type": "address"
        },
        {
          "internalType": "uint256",
          "name": "tokenId",
          "type": "uint256"
        }
      ],
      "name": "approve",
      "outputs": [],
      "stateMutability": "nonpayable",
      "type": "function"
    },
    {
      "inputs": [
        {
          "internalType": "address",
          "name": "owner",
          "type": "address"
        }
      ],
      "name": "balanceOf",
      "outputs": [
        {
          "internalType": "uint256",
          "name": "",
          "type": "uint256"
        }
      ],
      "stateMutability": "view",
      "type": "function",
      "constant": true
    },
    {
      "inputs": [
        {
          "internalType": "uint256",
          "name": "tokenId",
          "type": "uint256"
        }
      ],
      "name": "getApproved",
      "outputs": [
        {
          "internalType": "address",
          "name": "",
          "type": "address"
        }
      ],
      "stateMutability": "view",
      "type": "function",
      "constant": true
    },
    {
      "inputs": [
        {
          "internalType": "address",
          "name": "owner",
          "type": "address"
        },
        {
          "internalType": "address",
          "name": "operator",
          "type": "address"
        }
      ],
      "name": "isApprovedForAll",
      "outputs": [
        {
          "internalType": "bool",
          "name": "",
          "type": "bool"
        }
      ],
      "stateMutability": "view",
      "type": "function",
      "constant": true
    },
    {
      "inputs": [],
      "name": "name",
      "outputs": [
        {
          "internalType": "string",
          "name": "",
          "type": "string"
        }
      ],
      "stateMutability": "view",
      "type": "function",
      "constant": true
    },
    {
      "inputs": [],
      "name": "owner",
      "outputs": [
        {
          "internalType": "address",
          "name": "",
          "type": "address"
        }
      ],
      "stateMutability": "view",
      "type": "function",
      "constant": true
    },
    {
      "inputs": [
        {
          "internalType": "uint256",
          "name": "tokenId",
          "type": "uint256"
        }
      ],
      "name": "ownerOf",
      "outputs": [
        {
          "internalType": "address",
          "name": "",
          "type": "address"
        }
      ],
      "stateMutability": "view",
      "type": "function",
      "constant": true
    },
    {
      "inputs": [],
      "name": "renounceOwnership",
      "outputs": [],
      "stateMutability": "nonpayable",
      "type": "function"
    },
    {
      "inputs": [
        {
          "internalType": "address",
          "name": "from",
          "type": "address"
        },
        {
          "internalType": "address",
          "name": "to",
          "type": "address"
        },
        {
          "internalType": "uint256",
          "name": "tokenId",
          "type": "uint256"
        }
      ],
      "name": "safeTransferFrom",
      "outputs": [],
      "stateMutability": "nonpayable",
      "type": "function"
    },
    {
      "inputs": [
        {
          "internalType": "address",
          "name": "from",
          "type": "address"
        },
        {
          "internalType": "address",
          "name": "to",
          "type": "address"
        },
        {
          "internalType": "uint256",
          "name": "tokenId",
          "type": "uint256"
        },
        {
          "internalType": "bytes",
          "name": "_data",
          "type": "bytes"
        }
      ],
      "name": "safeTransferFrom",
      "outputs": [],
      "stateMutability": "nonpayable",
      "type": "function"
    },
    {
      "inputs": [
        {
          "internalType": "address",
          "name": "operator",
          "type": "address"
        },
        {
          "internalType": "bool",
          "name": "approved",
          "type": "bool"
        }
      ],
      "name": "setApprovalForAll",
      "outputs": [],
      "stateMutability": "nonpayable",
      "type": "function"
    },
    {
      "inputs": [
        {
          "internalType": "bytes4",
          "name": "interfaceId",
          "type": "bytes4"
        }
      ],
      "name": "supportsInterface",
      "outputs": [
        {
          "internalType": "bool",
          "name": "",
          "type": "bool"
        }
      ],
      "stateMutability": "view",
      "type": "function",
      "constant": true
    },
    {
      "inputs": [],
      "name": "symbol",
      "outputs": [
        {
          "internalType": "string",
          "name": "",
          "type": "string"
        }
      ],
      "stateMutability": "view",
      "type": "function",
      "constant": true
    },
    {
      "inputs": [
        {
          "internalType": "uint256",
          "name": "tokenId",
          "type": "uint256"
        }
      ],
      "name": "tokenURI",
      "outputs": [
        {
          "internalType": "string",
          "name": "",
          "type": "string"
        }
      ],
      "stateMutability": "view",
      "type": "function",
      "constant": true
    },
    {
      "inputs": [
        {
          "internalType": "address",
          "name": "from",
          "type": "address"
        },
        {
          "internalType": "address",
          "name": "to",
          "type": "address"
        },
        {
          "internalType": "uint256",
          "name": "tokenId",
          "type": "uint256"
        }
      ],
      "name": "transferFrom",
      "outputs": [],
      "stateMutability": "nonpayable",
      "type": "function"
    },
    {
      "inputs": [
        {
          "internalType": "address",
          "name": "newOwner",
          "type": "address"
        }
      ],
      "name": "transferOwnership",
      "outputs": [],
      "stateMutability": "nonpayable",
      "type": "function"
    },
    {
      "inputs": [
        {
          "internalType": "uint256",
          "name": "tokenId",
          "type": "uint256"
        }
      ],
      "name": "getTokenDetails",
      "outputs": [
        {
          "components": [
            {
              "internalType": "uint256",
              "name": "damage",
              "type": "uint256"
            },
            {
              "internalType": "uint256",
              "name": "magic",
              "type": "uint256"
            },
            {
              "internalType": "uint256",
              "name": "lastMeal",
              "type": "uint256"
            },
            {
              "internalType": "uint256",
              "name": "endurance",
              "type": "uint256"
            }
          ],
          "internalType": "struct Token.Pet",
          "name": "",
          "type": "tuple"
        }
      ],
      "stateMutability": "view",
      "type": "function",
      "constant": true
    },
    {
      "inputs": [
        {
          "internalType": "uint8",
          "name": "damage",
          "type": "uint8"
        },
        {
          "internalType": "uint8",
          "name": "magic",
          "type": "uint8"
        },
        {
          "internalType": "uint256",
          "name": "endurance",
          "type": "uint256"
        }
      ],
      "name": "mint",
      "outputs": [],
      "stateMutability": "nonpayable",
      "type": "function"
    },
    {
      "inputs": [
        {
          "internalType": "uint256",
          "name": "tokenId",
          "type": "uint256"
        }
      ],
      "name": "feed",
      "outputs": [],
      "stateMutability": "nonpayable",
      "type": "function"
    },
    {
      "inputs": [
        {
          "internalType": "address",
          "name": "user",
          "type": "address"
        }
      ],
      "name": "getAllTokenForUser",
      "outputs": [
        {
          "internalType": "uint256[]",
          "name": "",
          "type": "uint256[]"
        }
      ],
      "stateMutability": "view",
      "type": "function",
      "constant": true
    }
  ],
  "bytecode": "0x608060405260006007553480156200001657600080fd5b50604051620034303803806200343083398181016040528101906200003c91906200028a565b818181600090805190602001906200005692919062000168565b5080600190805190602001906200006f92919062000168565b50505062000092620000866200009a60201b60201c565b620000a260201b60201c565b50506200042e565b600033905090565b6000600660009054906101000a900473ffffffffffffffffffffffffffffffffffffffff16905081600660006101000a81548173ffffffffffffffffffffffffffffffffffffffff021916908373ffffffffffffffffffffffffffffffffffffffff1602179055508173ffffffffffffffffffffffffffffffffffffffff168173ffffffffffffffffffffffffffffffffffffffff167f8be0079c531659141344cd1fd0a4f28419497f9722a3daafe3b4186f6b6457e060405160405180910390a35050565b82805462000176906200039a565b90600052602060002090601f0160209004810192826200019a5760008555620001e6565b82601f10620001b557805160ff1916838001178555620001e6565b82800160010185558215620001e6579182015b82811115620001e5578251825591602001919060010190620001c8565b5b509050620001f59190620001f9565b5090565b5b8082111562000214576000816000905550600101620001fa565b5090565b60006200022f620002298462000331565b620002fd565b9050828152602081018484840111156200024857600080fd5b6200025584828562000364565b509392505050565b600082601f8301126200026f57600080fd5b81516200028184826020860162000218565b91505092915050565b600080604083850312156200029e57600080fd5b600083015167ffffffffffffffff811115620002b957600080fd5b620002c7858286016200025d565b925050602083015167ffffffffffffffff811115620002e557600080fd5b620002f3858286016200025d565b9150509250929050565b6000604051905081810181811067ffffffffffffffff82111715620003275762000326620003ff565b5b8060405250919050565b600067ffffffffffffffff8211156200034f576200034e620003ff565b5b601f19601f8301169050602081019050919050565b60005b838110156200038457808201518184015260208101905062000367565b8381111562000394576000848401525b50505050565b60006002820490506001821680620003b357607f821691505b60208210811415620003ca57620003c9620003d0565b5b50919050565b7f4e487b7100000000000000000000000000000000000000000000000000000000600052602260045260246000fd5b7f4e487b7100000000000000000000000000000000000000000000000000000000600052604160045260246000fd5b612ff2806200043e6000396000f3fe608060405234801561001057600080fd5b506004361061012c5760003560e01c80638da5cb5b116100ad578063c87b56dd11610071578063c87b56dd14610341578063e985e9c514610371578063eb22ed32146103a1578063f2fde38b146103bd578063f59dfdfb146103d95761012c565b80638da5cb5b1461029d57806395d89b41146102bb578063a22cb465146102d9578063b88d4fde146102f5578063c1e03728146103115761012c565b806342842e0e116100f457806342842e0e146101e757806346d90cfa146102035780636352211e1461023357806370a0823114610263578063715018a6146102935761012c565b806301ffc9a71461013157806306fdde0314610161578063081812fc1461017f578063095ea7b3146101af57806323b872dd146101cb575b600080fd5b61014b60048036038101906101469190612019565b6103f5565b6040516101589190612902565b60405180910390f35b6101696104d7565b604051610176919061291d565b60405180910390f35b6101996004803603810190610194919061206b565b610569565b6040516101a69190612879565b60405180910390f35b6101c960048036038101906101c49190611fdd565b6105ee565b005b6101e560048036038101906101e09190611ed7565b610706565b005b61020160048036038101906101fc9190611ed7565b610766565b005b61021d60048036038101906102189190611e72565b610786565b60405161022a91906128e0565b60405180910390f35b61024d6004803603810190610248919061206b565b61094f565b60405161025a9190612879565b60405180910390f35b61027d60048036038101906102789190611e72565b610a01565b60405161028a9190612b5a565b60405180910390f35b61029b610ab9565b005b6102a5610b41565b6040516102b29190612879565b60405180910390f35b6102c3610b6b565b6040516102d0919061291d565b60405180910390f35b6102f360048036038101906102ee9190611fa1565b610bfd565b005b61030f600480360381019061030a9190611f26565b610d7e565b005b61032b6004803603810190610326919061206b565b610de0565b6040516103389190612b3f565b60405180910390f35b61035b6004803603810190610356919061206b565b610e35565b604051610368919061291d565b60405180910390f35b61038b60048036038101906103869190611e9b565b610edc565b6040516103989190612902565b60405180910390f35b6103bb60048036038101906103b69190612094565b610f70565b005b6103d760048036038101906103d29190611e72565b61107c565b005b6103f360048036038101906103ee919061206b565b611174565b005b60007f80ac58cd000000000000000000000000000000000000000000000000000000007bffffffffffffffffffffffffffffffffffffffffffffffffffffffff1916827bffffffffffffffffffffffffffffffffffffffffffffffffffffffff191614806104c057507f5b5e139f000000000000000000000000000000000000000000000000000000007bffffffffffffffffffffffffffffffffffffffffffffffffffffffff1916827bffffffffffffffffffffffffffffffffffffffffffffffffffffffff1916145b806104d057506104cf826111b7565b5b9050919050565b6060600080546104e690612dd0565b80601f016020809104026020016040519081016040528092919081815260200182805461051290612dd0565b801561055f5780601f106105345761010080835404028352916020019161055f565b820191906000526020600020905b81548152906001019060200180831161054257829003601f168201915b5050505050905090565b600061057482611221565b6105b3576040517f08c379a00000000000000000000000000000000000000000000000000000000081526004016105aa90612a7f565b60405180910390fd5b6004600083815260200190815260200160002060009054906101000a900473ffffffffffffffffffffffffffffffffffffffff169050919050565b60006105f98261094f565b90508073ffffffffffffffffffffffffffffffffffffffff168373ffffffffffffffffffffffffffffffffffffffff16141561066a576040517f08c379a000000000000000000000000000000000000000000000000000000000815260040161066190612aff565b60405180910390fd5b8073ffffffffffffffffffffffffffffffffffffffff1661068961128d565b73ffffffffffffffffffffffffffffffffffffffff1614806106b857506106b7816106b261128d565b610edc565b5b6106f7576040517f08c379a00000000000000000000000000000000000000000000000000000000081526004016106ee906129ff565b60405180910390fd5b6107018383611295565b505050565b61071761071161128d565b8261134e565b610756576040517f08c379a000000000000000000000000000000000000000000000000000000000815260040161074d90612b1f565b60405180910390fd5b61076183838361142c565b505050565b61078183838360405180602001604052806000815250610d7e565b505050565b6060600061079383610a01565b9050600081141561081657600067ffffffffffffffff8111156107df577f4e487b7100000000000000000000000000000000000000000000000000000000600052604160045260246000fd5b60405190808252806020026020018201604052801561080d5781602001602082028036833780820191505090505b5091505061094a565b60008167ffffffffffffffff811115610858577f4e487b7100000000000000000000000000000000000000000000000000000000600052604160045260246000fd5b6040519080825280602002602001820160405280156108865781602001602082028036833780820191505090505b509050600060075490506000805b82811015610941578673ffffffffffffffffffffffffffffffffffffffff166108bc8261094f565b73ffffffffffffffffffffffffffffffffffffffff16141561092e576001848381518110610913577f4e487b7100000000000000000000000000000000000000000000000000000000600052603260045260246000fd5b602002602001018181525050818061092a90612e02565b9250505b808061093990612e02565b915050610894565b83955050505050505b919050565b6000806002600084815260200190815260200160002060009054906101000a900473ffffffffffffffffffffffffffffffffffffffff169050600073ffffffffffffffffffffffffffffffffffffffff168173ffffffffffffffffffffffffffffffffffffffff1614156109f8576040517f08c379a00000000000000000000000000000000000000000000000000000000081526004016109ef90612a3f565b60405180910390fd5b80915050919050565b60008073ffffffffffffffffffffffffffffffffffffffff168273ffffffffffffffffffffffffffffffffffffffff161415610a72576040517f08c379a0000000000000000000000000000000000000000000000000000000008152600401610a6990612a1f565b60405180910390fd5b600360008373ffffffffffffffffffffffffffffffffffffffff1673ffffffffffffffffffffffffffffffffffffffff168152602001908152602001600020549050919050565b610ac161128d565b73ffffffffffffffffffffffffffffffffffffffff16610adf610b41565b73ffffffffffffffffffffffffffffffffffffffff1614610b35576040517f08c379a0000000000000000000000000000000000000000000000000000000008152600401610b2c90612a9f565b60405180910390fd5b610b3f6000611688565b565b6000600660009054906101000a900473ffffffffffffffffffffffffffffffffffffffff16905090565b606060018054610b7a90612dd0565b80601f0160208091040260200160405190810160405280929190818152602001828054610ba690612dd0565b8015610bf35780601f10610bc857610100808354040283529160200191610bf3565b820191906000526020600020905b815481529060010190602001808311610bd657829003601f168201915b5050505050905090565b610c0561128d565b73ffffffffffffffffffffffffffffffffffffffff168273ffffffffffffffffffffffffffffffffffffffff161415610c73576040517f08c379a0000000000000000000000000000000000000000000000000000000008152600401610c6a906129bf565b60405180910390fd5b8060056000610c8061128d565b73ffffffffffffffffffffffffffffffffffffffff1673ffffffffffffffffffffffffffffffffffffffff16815260200190815260200160002060008473ffffffffffffffffffffffffffffffffffffffff1673ffffffffffffffffffffffffffffffffffffffff16815260200190815260200160002060006101000a81548160ff0219169083151502179055508173ffffffffffffffffffffffffffffffffffffffff16610d2d61128d565b73ffffffffffffffffffffffffffffffffffffffff167f17307eab39ab6107e8899845ad3d59bd9653f200f220920489ca2b5937696c3183604051610d729190612902565b60405180910390a35050565b610d8f610d8961128d565b8361134e565b610dce576040517f08c379a0000000000000000000000000000000000000000000000000000000008152600401610dc590612b1f565b60405180910390fd5b610dda8484848461174e565b50505050565b610de8611d64565b600860008381526020019081526020016000206040518060800160405290816000820154815260200160018201548152602001600282015481526020016003820154815250509050919050565b6060610e4082611221565b610e7f576040517f08c379a0000000000000000000000000000000000000000000000000000000008152600401610e7690612adf565b60405180910390fd5b6000610e896117aa565b90506000815111610ea95760405180602001604052806000815250610ed4565b80610eb3846117c1565b604051602001610ec4929190612855565b6040516020818303038152906040525b915050919050565b6000600560008473ffffffffffffffffffffffffffffffffffffffff1673ffffffffffffffffffffffffffffffffffffffff16815260200190815260200160002060008373ffffffffffffffffffffffffffffffffffffffff1673ffffffffffffffffffffffffffffffffffffffff16815260200190815260200160002060009054906101000a900460ff16905092915050565b610f7861128d565b73ffffffffffffffffffffffffffffffffffffffff16610f96610b41565b73ffffffffffffffffffffffffffffffffffffffff1614610fec576040517f08c379a0000000000000000000000000000000000000000000000000000000008152600401610fe390612a9f565b60405180910390fd5b60405180608001604052808460ff1681526020018360ff168152602001428152602001828152506008600060075481526020019081526020016000206000820151816000015560208201518160010155604082015181600201556060820151816003015590505061105f3360075461196e565b6007600081548092919061107290612e02565b9190505550505050565b61108461128d565b73ffffffffffffffffffffffffffffffffffffffff166110a2610b41565b73ffffffffffffffffffffffffffffffffffffffff16146110f8576040517f08c379a00000000000000000000000000000000000000000000000000000000081526004016110ef90612a9f565b60405180910390fd5b600073ffffffffffffffffffffffffffffffffffffffff168173ffffffffffffffffffffffffffffffffffffffff161415611168576040517f08c379a000000000000000000000000000000000000000000000000000000000815260040161115f9061295f565b60405180910390fd5b61117181611688565b50565b600060086000838152602001908152602001600020905042816003015482600201546111a09190612c52565b116111aa57600080fd5b4281600201819055505050565b60007f01ffc9a7000000000000000000000000000000000000000000000000000000007bffffffffffffffffffffffffffffffffffffffffffffffffffffffff1916827bffffffffffffffffffffffffffffffffffffffffffffffffffffffff1916149050919050565b60008073ffffffffffffffffffffffffffffffffffffffff166002600084815260200190815260200160002060009054906101000a900473ffffffffffffffffffffffffffffffffffffffff1673ffffffffffffffffffffffffffffffffffffffff1614159050919050565b600033905090565b816004600083815260200190815260200160002060006101000a81548173ffffffffffffffffffffffffffffffffffffffff021916908373ffffffffffffffffffffffffffffffffffffffff160217905550808273ffffffffffffffffffffffffffffffffffffffff166113088361094f565b73ffffffffffffffffffffffffffffffffffffffff167f8c5be1e5ebec7d5bd14f71427d1e84f3dd0314c0f7b2291e5b200ac8c7c3b92560405160405180910390a45050565b600061135982611221565b611398576040517f08c379a000000000000000000000000000000000000000000000000000000000815260040161138f906129df565b60405180910390fd5b60006113a38361094f565b90508073ffffffffffffffffffffffffffffffffffffffff168473ffffffffffffffffffffffffffffffffffffffff16148061141257508373ffffffffffffffffffffffffffffffffffffffff166113fa84610569565b73ffffffffffffffffffffffffffffffffffffffff16145b8061142357506114228185610edc565b5b91505092915050565b8273ffffffffffffffffffffffffffffffffffffffff1661144c8261094f565b73ffffffffffffffffffffffffffffffffffffffff16146114a2576040517f08c379a000000000000000000000000000000000000000000000000000000000815260040161149990612abf565b60405180910390fd5b600073ffffffffffffffffffffffffffffffffffffffff168273ffffffffffffffffffffffffffffffffffffffff161415611512576040517f08c379a00000000000000000000000000000000000000000000000000000000081526004016115099061299f565b60405180910390fd5b61151d83838361198c565b611528600082611295565b6001600360008573ffffffffffffffffffffffffffffffffffffffff1673ffffffffffffffffffffffffffffffffffffffff16815260200190815260200160002060008282546115789190612cd9565b925050819055506001600360008473ffffffffffffffffffffffffffffffffffffffff1673ffffffffffffffffffffffffffffffffffffffff16815260200190815260200160002060008282546115cf9190612c52565b92505081905550816002600083815260200190815260200160002060006101000a81548173ffffffffffffffffffffffffffffffffffffffff021916908373ffffffffffffffffffffffffffffffffffffffff160217905550808273ffffffffffffffffffffffffffffffffffffffff168473ffffffffffffffffffffffffffffffffffffffff167fddf252ad1be2c89b69c2b068fc378daa952ba7f163c4a11628f55a4df523b3ef60405160405180910390a4505050565b6000600660009054906101000a900473ffffffffffffffffffffffffffffffffffffffff16905081600660006101000a81548173ffffffffffffffffffffffffffffffffffffffff021916908373ffffffffffffffffffffffffffffffffffffffff1602179055508173ffffffffffffffffffffffffffffffffffffffff168173ffffffffffffffffffffffffffffffffffffffff167f8be0079c531659141344cd1fd0a4f28419497f9722a3daafe3b4186f6b6457e060405160405180910390a35050565b61175984848461142c565b61176584848484611991565b6117a4576040517f08c379a000000000000000000000000000000000000000000000000000000000815260040161179b9061293f565b60405180910390fd5b50505050565b606060405180602001604052806000815250905090565b60606000821415611809576040518060400160405280600181526020017f30000000000000000000000000000000000000000000000000000000000000008152509050611969565b600082905060005b6000821461183b57808061182490612e02565b915050600a826118349190612ca8565b9150611811565b60008167ffffffffffffffff81111561187d577f4e487b7100000000000000000000000000000000000000000000000000000000600052604160045260246000fd5b6040519080825280601f01601f1916602001820160405280156118af5781602001600182028036833780820191505090505b5090505b60008514611962576001826118c89190612cd9565b9150600a856118d79190612e4b565b60306118e39190612c52565b60f81b81838151811061191f577f4e487b7100000000000000000000000000000000000000000000000000000000600052603260045260246000fd5b60200101907effffffffffffffffffffffffffffffffffffffffffffffffffffffffffffff1916908160001a905350600a8561195b9190612ca8565b94506118b3565b8093505050505b919050565b611988828260405180602001604052806000815250611b28565b5050565b505050565b60006119b28473ffffffffffffffffffffffffffffffffffffffff16611b83565b15611b1b578373ffffffffffffffffffffffffffffffffffffffff1663150b7a026119db61128d565b8786866040518563ffffffff1660e01b81526004016119fd9493929190612894565b602060405180830381600087803b158015611a1757600080fd5b505af1925050508015611a4857506040513d601f19601f82011682018060405250810190611a459190612042565b60015b611acb573d8060008114611a78576040519150601f19603f3d011682016040523d82523d6000602084013e611a7d565b606091505b50600081511415611ac3576040517f08c379a0000000000000000000000000000000000000000000000000000000008152600401611aba9061293f565b60405180910390fd5b805181602001fd5b63150b7a0260e01b7bffffffffffffffffffffffffffffffffffffffffffffffffffffffff1916817bffffffffffffffffffffffffffffffffffffffffffffffffffffffff191614915050611b20565b600190505b949350505050565b611b328383611b96565b611b3f6000848484611991565b611b7e576040517f08c379a0000000000000000000000000000000000000000000000000000000008152600401611b759061293f565b60405180910390fd5b505050565b600080823b905060008111915050919050565b600073ffffffffffffffffffffffffffffffffffffffff168273ffffffffffffffffffffffffffffffffffffffff161415611c06576040517f08c379a0000000000000000000000000000000000000000000000000000000008152600401611bfd90612a5f565b60405180910390fd5b611c0f81611221565b15611c4f576040517f08c379a0000000000000000000000000000000000000000000000000000000008152600401611c469061297f565b60405180910390fd5b611c5b6000838361198c565b6001600360008473ffffffffffffffffffffffffffffffffffffffff1673ffffffffffffffffffffffffffffffffffffffff1681526020019081526020016000206000828254611cab9190612c52565b92505081905550816002600083815260200190815260200160002060006101000a81548173ffffffffffffffffffffffffffffffffffffffff021916908373ffffffffffffffffffffffffffffffffffffffff160217905550808273ffffffffffffffffffffffffffffffffffffffff16600073ffffffffffffffffffffffffffffffffffffffff167fddf252ad1be2c89b69c2b068fc378daa952ba7f163c4a11628f55a4df523b3ef60405160405180910390a45050565b6040518060800160405280600081526020016000815260200160008152602001600081525090565b6000611d9f611d9a84612ba6565b612b75565b905082815260208101848484011115611db757600080fd5b611dc2848285612d8e565b509392505050565b600081359050611dd981612f49565b92915050565b600081359050611dee81612f60565b92915050565b600081359050611e0381612f77565b92915050565b600081519050611e1881612f77565b92915050565b600082601f830112611e2f57600080fd5b8135611e3f848260208601611d8c565b91505092915050565b600081359050611e5781612f8e565b92915050565b600081359050611e6c81612fa5565b92915050565b600060208284031215611e8457600080fd5b6000611e9284828501611dca565b91505092915050565b60008060408385031215611eae57600080fd5b6000611ebc85828601611dca565b9250506020611ecd85828601611dca565b9150509250929050565b600080600060608486031215611eec57600080fd5b6000611efa86828701611dca565b9350506020611f0b86828701611dca565b9250506040611f1c86828701611e48565b9150509250925092565b60008060008060808587031215611f3c57600080fd5b6000611f4a87828801611dca565b9450506020611f5b87828801611dca565b9350506040611f6c87828801611e48565b925050606085013567ffffffffffffffff811115611f8957600080fd5b611f9587828801611e1e565b91505092959194509250565b60008060408385031215611fb457600080fd5b6000611fc285828601611dca565b9250506020611fd385828601611ddf565b9150509250929050565b60008060408385031215611ff057600080fd5b6000611ffe85828601611dca565b925050602061200f85828601611e48565b9150509250929050565b60006020828403121561202b57600080fd5b600061203984828501611df4565b91505092915050565b60006020828403121561205457600080fd5b600061206284828501611e09565b91505092915050565b60006020828403121561207d57600080fd5b600061208b84828501611e48565b91505092915050565b6000806000606084860312156120a957600080fd5b60006120b786828701611e5d565b93505060206120c886828701611e5d565b92505060406120d986828701611e48565b9150509250925092565b60006120ef8383612837565b60208301905092915050565b61210481612d0d565b82525050565b600061211582612be6565b61211f8185612c14565b935061212a83612bd6565b8060005b8381101561215b57815161214288826120e3565b975061214d83612c07565b92505060018101905061212e565b5085935050505092915050565b61217181612d1f565b82525050565b600061218282612bf1565b61218c8185612c25565b935061219c818560208601612d9d565b6121a581612f38565b840191505092915050565b60006121bb82612bfc565b6121c58185612c36565b93506121d5818560208601612d9d565b6121de81612f38565b840191505092915050565b60006121f482612bfc565b6121fe8185612c47565b935061220e818560208601612d9d565b80840191505092915050565b6000612227603283612c36565b91507f4552433732313a207472616e7366657220746f206e6f6e20455243373231526560008301527f63656976657220696d706c656d656e74657200000000000000000000000000006020830152604082019050919050565b600061228d602683612c36565b91507f4f776e61626c653a206e6577206f776e657220697320746865207a65726f206160008301527f64647265737300000000000000000000000000000000000000000000000000006020830152604082019050919050565b60006122f3601c83612c36565b91507f4552433732313a20746f6b656e20616c7265616479206d696e746564000000006000830152602082019050919050565b6000612333602483612c36565b91507f4552433732313a207472616e7366657220746f20746865207a65726f2061646460008301527f72657373000000000000000000000000000000000000000000000000000000006020830152604082019050919050565b6000612399601983612c36565b91507f4552433732313a20617070726f766520746f2063616c6c6572000000000000006000830152602082019050919050565b60006123d9602c83612c36565b91507f4552433732313a206f70657261746f7220717565727920666f72206e6f6e657860008301527f697374656e7420746f6b656e00000000000000000000000000000000000000006020830152604082019050919050565b600061243f603883612c36565b91507f4552433732313a20617070726f76652063616c6c6572206973206e6f74206f7760008301527f6e6572206e6f7220617070726f76656420666f7220616c6c00000000000000006020830152604082019050919050565b60006124a5602a83612c36565b91507f4552433732313a2062616c616e636520717565727920666f7220746865207a6560008301527f726f2061646472657373000000000000000000000000000000000000000000006020830152604082019050919050565b600061250b602983612c36565b91507f4552433732313a206f776e657220717565727920666f72206e6f6e657869737460008301527f656e7420746f6b656e00000000000000000000000000000000000000000000006020830152604082019050919050565b6000612571602083612c36565b91507f4552433732313a206d696e7420746f20746865207a65726f20616464726573736000830152602082019050919050565b60006125b1602c83612c36565b91507f4552433732313a20617070726f76656420717565727920666f72206e6f6e657860008301527f697374656e7420746f6b656e00000000000000000000000000000000000000006020830152604082019050919050565b6000612617602083612c36565b91507f4f776e61626c653a2063616c6c6572206973206e6f7420746865206f776e65726000830152602082019050919050565b6000612657602983612c36565b91507f4552433732313a207472616e73666572206f6620746f6b656e2074686174206960008301527f73206e6f74206f776e00000000000000000000000000000000000000000000006020830152604082019050919050565b60006126bd602f83612c36565b91507f4552433732314d657461646174613a2055524920717565727920666f72206e6f60008301527f6e6578697374656e7420746f6b656e00000000000000000000000000000000006020830152604082019050919050565b6000612723602183612c36565b91507f4552433732313a20617070726f76616c20746f2063757272656e74206f776e6560008301527f72000000000000000000000000000000000000000000000000000000000000006020830152604082019050919050565b6000612789603183612c36565b91507f4552433732313a207472616e736665722063616c6c6572206973206e6f74206f60008301527f776e6572206e6f7220617070726f7665640000000000000000000000000000006020830152604082019050919050565b6080820160008201516127f86000850182612837565b50602082015161280b6020850182612837565b50604082015161281e6040850182612837565b5060608201516128316060850182612837565b50505050565b61284081612d77565b82525050565b61284f81612d77565b82525050565b600061286182856121e9565b915061286d82846121e9565b91508190509392505050565b600060208201905061288e60008301846120fb565b92915050565b60006080820190506128a960008301876120fb565b6128b660208301866120fb565b6128c36040830185612846565b81810360608301526128d58184612177565b905095945050505050565b600060208201905081810360008301526128fa818461210a565b905092915050565b60006020820190506129176000830184612168565b92915050565b6000602082019050818103600083015261293781846121b0565b905092915050565b600060208201905081810360008301526129588161221a565b9050919050565b6000602082019050818103600083015261297881612280565b9050919050565b60006020820190508181036000830152612998816122e6565b9050919050565b600060208201905081810360008301526129b881612326565b9050919050565b600060208201905081810360008301526129d88161238c565b9050919050565b600060208201905081810360008301526129f8816123cc565b9050919050565b60006020820190508181036000830152612a1881612432565b9050919050565b60006020820190508181036000830152612a3881612498565b9050919050565b60006020820190508181036000830152612a58816124fe565b9050919050565b60006020820190508181036000830152612a7881612564565b9050919050565b60006020820190508181036000830152612a98816125a4565b9050919050565b60006020820190508181036000830152612ab88161260a565b9050919050565b60006020820190508181036000830152612ad88161264a565b9050919050565b60006020820190508181036000830152612af8816126b0565b9050919050565b60006020820190508181036000830152612b1881612716565b9050919050565b60006020820190508181036000830152612b388161277c565b9050919050565b6000608082019050612b5460008301846127e2565b92915050565b6000602082019050612b6f6000830184612846565b92915050565b6000604051905081810181811067ffffffffffffffff82111715612b9c57612b9b612f09565b5b8060405250919050565b600067ffffffffffffffff821115612bc157612bc0612f09565b5b601f19601f8301169050602081019050919050565b6000819050602082019050919050565b600081519050919050565b600081519050919050565b600081519050919050565b6000602082019050919050565b600082825260208201905092915050565b600082825260208201905092915050565b600082825260208201905092915050565b600081905092915050565b6000612c5d82612d77565b9150612c6883612d77565b9250827fffffffffffffffffffffffffffffffffffffffffffffffffffffffffffffffff03821115612c9d57612c9c612e7c565b5b828201905092915050565b6000612cb382612d77565b9150612cbe83612d77565b925082612cce57612ccd612eab565b5b828204905092915050565b6000612ce482612d77565b9150612cef83612d77565b925082821015612d0257612d01612e7c565b5b828203905092915050565b6000612d1882612d57565b9050919050565b60008115159050919050565b60007fffffffff0000000000000000000000000000000000000000000000000000000082169050919050565b600073ffffffffffffffffffffffffffffffffffffffff82169050919050565b6000819050919050565b600060ff82169050919050565b82818337600083830152505050565b60005b83811015612dbb578082015181840152602081019050612da0565b83811115612dca576000848401525b50505050565b60006002820490506001821680612de857607f821691505b60208210811415612dfc57612dfb612eda565b5b50919050565b6000612e0d82612d77565b91507fffffffffffffffffffffffffffffffffffffffffffffffffffffffffffffffff821415612e4057612e3f612e7c565b5b600182019050919050565b6000612e5682612d77565b9150612e6183612d77565b925082612e7157612e70612eab565b5b828206905092915050565b7f4e487b7100000000000000000000000000000000000000000000000000000000600052601160045260246000fd5b7f4e487b7100000000000000000000000000000000000000000000000000000000600052601260045260246000fd5b7f4e487b7100000000000000000000000000000000000000000000000000000000600052602260045260246000fd5b7f4e487b7100000000000000000000000000000000000000000000000000000000600052604160045260246000fd5b6000601f19601f8301169050919050565b612f5281612d0d565b8114612f5d57600080fd5b50565b612f6981612d1f565b8114612f7457600080fd5b50565b612f8081612d2b565b8114612f8b57600080fd5b50565b612f9781612d77565b8114612fa257600080fd5b50565b612fae81612d81565b8114612fb957600080fd5b5056fea26469706673582212208653a256ee8ccd4343bfb5f275d5b00fc2f123c1cf17e5cd4cde638da8ffada064736f6c63430008000033",
  "immutableReferences": {},
  "source": "// SPDX-License-Identifier: UNLICENSED \r\npragma solidity 0.8.0;\r\n\r\nimport \"@openzeppelin/contracts/token/ERC721/ERC721.sol\";\r\nimport \"@openzeppelin/contracts/access/Ownable.sol\";\r\n\r\ncontract Token is ERC721, Ownable {\r\n      \r\n      struct Pet {\r\n          uint damage;\r\n          uint magic;\r\n          uint lastMeal;\r\n          uint endurance;\r\n      }\r\n\r\n      uint256 nextId = 0; \r\n\r\n      mapping( uint256 => Pet ) private _tokenDetails;\r\n\r\n      constructor(string memory name, string memory symbol) ERC721(name, symbol) {\r\n\r\n      }\r\n\r\n      function getTokenDetails(uint256 tokenId) public view returns (Pet memory) {\r\n          return _tokenDetails[tokenId];\r\n      }\r\n\r\n      function mint(uint8 damage, uint8 magic, uint256 endurance) public onlyOwner {         \r\n          _tokenDetails[nextId] = Pet(damage, magic, block.timestamp, endurance);\r\n          _safeMint(msg.sender, nextId);\r\n          nextId++;\r\n      }\r\n\r\n      function feed(uint256 tokenId) public {\r\n          Pet storage pet = _tokenDetails[tokenId];\r\n          require(pet.lastMeal + pet.endurance > block.timestamp);\r\n          pet.lastMeal = block.timestamp;\r\n      }\r\n\r\n      function getAllTokenForUser(address user) public view returns (uint256[] memory){\r\n          uint256 tokenCount = balanceOf(user);\r\n          if(tokenCount == 0){\r\n          return new uint256[](0);\r\n          }else{\r\n           uint[] memory result = new uint256[](tokenCount);\r\n           uint256 totalPets = nextId;\r\n           uint256 resultIndex = 0;\r\n           uint256 i;\r\n           for(i = 0; i < totalPets; i++){\r\n               if(ownerOf(i) == user){\r\n                  result[resultIndex] = 1;\r\n                  resultIndex++;\r\n               }\r\n           } \r\n           return result;\r\n          } \r\n        }\r\n\r\n       function _beforeTokenTransfer(uint256 tokenId) internal {\r\n           Pet storage pet = _tokenDetails[tokenId];\r\n          require(pet.lastMeal + pet.endurance > block.timestamp); // pet still alive\r\n       }\r\n}",
  "sourcePath": "C:\\Users\\user\\Desktop\\nft-game\\contracts\\Token.sol",
  "compiler": {
    "name": "solc",
    "version": "0.8.0+commit.c7dfd78e.Emscripten.clang"
  },
  "schemaVersion": "3.4.2",
  "updatedAt": "2021-08-10T14:46:55.629Z",
  "networkType": "ethereum",
  "devdoc": {
    "kind": "dev",
    "methods": {
      "approve(address,uint256)": {
        "details": "See {IERC721-approve}."
      },
      "balanceOf(address)": {
        "details": "See {IERC721-balanceOf}."
      },
      "getApproved(uint256)": {
        "details": "See {IERC721-getApproved}."
      },
      "isApprovedForAll(address,address)": {
        "details": "See {IERC721-isApprovedForAll}."
      },
      "name()": {
        "details": "See {IERC721Metadata-name}."
      },
      "owner()": {
        "details": "Returns the address of the current owner."
      },
      "ownerOf(uint256)": {
        "details": "See {IERC721-ownerOf}."
      },
      "renounceOwnership()": {
        "details": "Leaves the contract without owner. It will not be possible to call `onlyOwner` functions anymore. Can only be called by the current owner. NOTE: Renouncing ownership will leave the contract without an owner, thereby removing any functionality that is only available to the owner."
      },
      "safeTransferFrom(address,address,uint256)": {
        "details": "See {IERC721-safeTransferFrom}."
      },
      "safeTransferFrom(address,address,uint256,bytes)": {
        "details": "See {IERC721-safeTransferFrom}."
      },
      "setApprovalForAll(address,bool)": {
        "details": "See {IERC721-setApprovalForAll}."
      },
      "supportsInterface(bytes4)": {
        "details": "See {IERC165-supportsInterface}."
      },
      "symbol()": {
        "details": "See {IERC721Metadata-symbol}."
      },
      "tokenURI(uint256)": {
        "details": "See {IERC721Metadata-tokenURI}."
      },
      "transferFrom(address,address,uint256)": {
        "details": "See {IERC721-transferFrom}."
      },
      "transferOwnership(address)": {
        "details": "Transfers ownership of the contract to a new account (`newOwner`). Can only be called by the current owner."
      }
    },
    "version": 1
  },
  "userdoc": {
    "kind": "user",
    "methods": {},
    "version": 1
  }
}